{
  "contractName": "Farm",
  "abi": [
    {
      "inputs": [
        {
          "internalType": "contract IERC20",
          "name": "_erc20",
          "type": "address"
        },
        {
          "internalType": "uint256",
          "name": "_rewardPerBlock",
          "type": "uint256"
        },
        {
          "internalType": "uint256",
          "name": "_startBlock",
          "type": "uint256"
        }
      ],
      "stateMutability": "nonpayable",
      "type": "constructor"
    },
    {
      "anonymous": false,
      "inputs": [
        {
          "indexed": true,
          "internalType": "address",
          "name": "user",
          "type": "address"
        },
        {
          "indexed": true,
          "internalType": "uint256",
          "name": "pid",
          "type": "uint256"
        },
        {
          "indexed": false,
          "internalType": "uint256",
          "name": "amount",
          "type": "uint256"
        }
      ],
      "name": "Deposit",
      "type": "event"
    },
    {
      "anonymous": false,
      "inputs": [
        {
          "indexed": true,
          "internalType": "address",
          "name": "user",
          "type": "address"
        },
        {
          "indexed": true,
          "internalType": "uint256",
          "name": "pid",
          "type": "uint256"
        },
        {
          "indexed": false,
          "internalType": "uint256",
          "name": "amount",
          "type": "uint256"
        }
      ],
      "name": "EmergencyWithdraw",
      "type": "event"
    },
    {
      "anonymous": false,
      "inputs": [
        {
          "indexed": true,
          "internalType": "address",
          "name": "previousOwner",
          "type": "address"
        },
        {
          "indexed": true,
          "internalType": "address",
          "name": "newOwner",
          "type": "address"
        }
      ],
      "name": "OwnershipTransferred",
      "type": "event"
    },
    {
      "anonymous": false,
      "inputs": [
        {
          "indexed": true,
          "internalType": "address",
          "name": "user",
          "type": "address"
        },
        {
          "indexed": true,
          "internalType": "uint256",
          "name": "pid",
          "type": "uint256"
        },
        {
          "indexed": false,
          "internalType": "uint256",
          "name": "amount",
          "type": "uint256"
        }
      ],
      "name": "Withdraw",
      "type": "event"
    },
    {
      "inputs": [],
      "name": "endBlock",
      "outputs": [
        {
          "internalType": "uint256",
          "name": "",
          "type": "uint256"
        }
      ],
      "stateMutability": "view",
      "type": "function"
    },
    {
      "inputs": [],
      "name": "erc20",
      "outputs": [
        {
          "internalType": "contract IERC20",
          "name": "",
          "type": "address"
        }
      ],
      "stateMutability": "view",
      "type": "function"
    },
    {
      "inputs": [],
      "name": "owner",
      "outputs": [
        {
          "internalType": "address",
          "name": "",
          "type": "address"
        }
      ],
      "stateMutability": "view",
      "type": "function"
    },
    {
      "inputs": [],
      "name": "paidOut",
      "outputs": [
        {
          "internalType": "uint256",
          "name": "",
          "type": "uint256"
        }
      ],
      "stateMutability": "view",
      "type": "function"
    },
    {
      "inputs": [
        {
          "internalType": "uint256",
          "name": "",
          "type": "uint256"
        }
      ],
      "name": "poolInfo",
      "outputs": [
        {
          "internalType": "contract IERC20",
          "name": "lpToken",
          "type": "address"
        },
        {
          "internalType": "uint256",
          "name": "allocPoint",
          "type": "uint256"
        },
        {
          "internalType": "uint256",
          "name": "lastRewardBlock",
          "type": "uint256"
        },
        {
          "internalType": "uint256",
          "name": "accERC20PerShare",
          "type": "uint256"
        }
      ],
      "stateMutability": "view",
      "type": "function"
    },
    {
      "inputs": [],
      "name": "renounceOwnership",
      "outputs": [],
      "stateMutability": "nonpayable",
      "type": "function"
    },
    {
      "inputs": [],
      "name": "rewardPerBlock",
      "outputs": [
        {
          "internalType": "uint256",
          "name": "",
          "type": "uint256"
        }
      ],
      "stateMutability": "view",
      "type": "function"
    },
    {
      "inputs": [],
      "name": "startBlock",
      "outputs": [
        {
          "internalType": "uint256",
          "name": "",
          "type": "uint256"
        }
      ],
      "stateMutability": "view",
      "type": "function"
    },
    {
      "inputs": [],
      "name": "totalAllocPoint",
      "outputs": [
        {
          "internalType": "uint256",
          "name": "",
          "type": "uint256"
        }
      ],
      "stateMutability": "view",
      "type": "function"
    },
    {
      "inputs": [
        {
          "internalType": "address",
          "name": "newOwner",
          "type": "address"
        }
      ],
      "name": "transferOwnership",
      "outputs": [],
      "stateMutability": "nonpayable",
      "type": "function"
    },
    {
      "inputs": [
        {
          "internalType": "uint256",
          "name": "",
          "type": "uint256"
        },
        {
          "internalType": "address",
          "name": "",
          "type": "address"
        }
      ],
      "name": "userInfo",
      "outputs": [
        {
          "internalType": "uint256",
          "name": "amount",
          "type": "uint256"
        },
        {
          "internalType": "uint256",
          "name": "rewardDebt",
          "type": "uint256"
        }
      ],
      "stateMutability": "view",
      "type": "function"
    },
    {
      "inputs": [],
      "name": "poolLength",
      "outputs": [
        {
          "internalType": "uint256",
          "name": "",
          "type": "uint256"
        }
      ],
      "stateMutability": "view",
      "type": "function"
    },
    {
      "inputs": [
        {
          "internalType": "uint256",
          "name": "_amount",
          "type": "uint256"
        }
      ],
      "name": "fund",
      "outputs": [],
      "stateMutability": "nonpayable",
      "type": "function"
    },
    {
      "inputs": [
        {
          "internalType": "uint256",
          "name": "_allocPoint",
          "type": "uint256"
        },
        {
          "internalType": "contract IERC20",
          "name": "_lpToken",
          "type": "address"
        },
        {
          "internalType": "bool",
          "name": "_withUpdate",
          "type": "bool"
        }
      ],
      "name": "add",
      "outputs": [],
      "stateMutability": "nonpayable",
      "type": "function"
    },
    {
      "inputs": [
        {
          "internalType": "uint256",
          "name": "_pid",
          "type": "uint256"
        },
        {
          "internalType": "uint256",
          "name": "_allocPoint",
          "type": "uint256"
        },
        {
          "internalType": "bool",
          "name": "_withUpdate",
          "type": "bool"
        }
      ],
      "name": "set",
      "outputs": [],
      "stateMutability": "nonpayable",
      "type": "function"
    },
    {
      "inputs": [
        {
          "internalType": "uint256",
          "name": "_pid",
          "type": "uint256"
        },
        {
          "internalType": "address",
          "name": "_user",
          "type": "address"
        }
      ],
      "name": "deposited",
      "outputs": [
        {
          "internalType": "uint256",
          "name": "",
          "type": "uint256"
        }
      ],
      "stateMutability": "view",
      "type": "function"
    },
    {
      "inputs": [
        {
          "internalType": "uint256",
          "name": "_pid",
          "type": "uint256"
        },
        {
          "internalType": "address",
          "name": "_user",
          "type": "address"
        }
      ],
      "name": "pending",
      "outputs": [
        {
          "internalType": "uint256",
          "name": "",
          "type": "uint256"
        }
      ],
      "stateMutability": "view",
      "type": "function"
    },
    {
      "inputs": [],
      "name": "totalPending",
      "outputs": [
        {
          "internalType": "uint256",
          "name": "",
          "type": "uint256"
        }
      ],
      "stateMutability": "view",
      "type": "function"
    },
    {
      "inputs": [],
      "name": "massUpdatePools",
      "outputs": [],
      "stateMutability": "nonpayable",
      "type": "function"
    },
    {
      "inputs": [
        {
          "internalType": "uint256",
          "name": "_pid",
          "type": "uint256"
        }
      ],
      "name": "updatePool",
      "outputs": [],
      "stateMutability": "nonpayable",
      "type": "function"
    },
    {
      "inputs": [
        {
          "internalType": "uint256",
          "name": "_pid",
          "type": "uint256"
        },
        {
          "internalType": "uint256",
          "name": "_amount",
          "type": "uint256"
        }
      ],
      "name": "deposit",
      "outputs": [],
      "stateMutability": "nonpayable",
      "type": "function"
    },
    {
      "inputs": [
        {
          "internalType": "uint256",
          "name": "_pid",
          "type": "uint256"
        },
        {
          "internalType": "uint256",
          "name": "_amount",
          "type": "uint256"
        }
      ],
      "name": "withdraw",
      "outputs": [],
      "stateMutability": "nonpayable",
      "type": "function"
    },
    {
      "inputs": [
        {
          "internalType": "uint256",
          "name": "_pid",
          "type": "uint256"
        }
      ],
      "name": "emergencyWithdraw",
      "outputs": [],
      "stateMutability": "nonpayable",
      "type": "function"
    }
  ],
  "bytecode": "0x60806040526000600255600060065534801561001a57600080fd5b506040516123923803806123928339818101604052606081101561003d57600080fd5b81019080805190602001909291908051906020019092919080519060200190929190505050600061007261016e60201b60201c565b9050806000806101000a81548173ffffffffffffffffffffffffffffffffffffffff021916908373ffffffffffffffffffffffffffffffffffffffff1602179055508073ffffffffffffffffffffffffffffffffffffffff16600073ffffffffffffffffffffffffffffffffffffffff167f8be0079c531659141344cd1fd0a4f28419497f9722a3daafe3b4186f6b6457e060405160405180910390a35082600160006101000a81548173ffffffffffffffffffffffffffffffffffffffff021916908373ffffffffffffffffffffffffffffffffffffffff160217905550816003819055508060078190555080600881905550505050610176565b600033905090565b61220d806101856000396000f3fe608060405234801561001057600080fd5b506004361061014d5760003560e01c8063630b5ba1116100c357806393f1a40b1161007c57806393f1a40b1461043f578063a2383106146104a8578063ca1d209d1461050a578063e2bbb15814610538578063e4c75c2714610570578063f2fde38b146105d25761014d565b8063630b5ba11461036157806364482f791461036b578063715018a6146103af578063785e9e86146103b95780638ae39cac146103ed5780638da5cb5b1461040b5761014d565b80633f90916a116101155780633f90916a14610273578063441a3e701461029157806348cd4cb1146102c957806351eb05a6146102e75780635312ea8e146103155780635c76ca2d146103435761014d565b8063081e3eda14610152578063083c6323146101705780631526fe271461018e57806317caf6f1146101fb5780631eaaa04514610219575b600080fd5b61015a610616565b6040518082815260200191505060405180910390f35b610178610623565b6040518082815260200191505060405180910390f35b6101ba600480360360208110156101a457600080fd5b8101908080359060200190929190505050610629565b604051808573ffffffffffffffffffffffffffffffffffffffff16815260200184815260200183815260200182815260200194505050505060405180910390f35b610203610686565b6040518082815260200191505060405180910390f35b6102716004803603606081101561022f57600080fd5b8101908080359060200190929190803573ffffffffffffffffffffffffffffffffffffffff16906020019092919080351515906020019092919050505061068c565b005b61027b61084c565b6040518082815260200191505060405180910390f35b6102c7600480360360408110156102a757600080fd5b8101908080359060200190929190803590602001909291905050506108ab565b005b6102d1610aec565b6040518082815260200191505060405180910390f35b610313600480360360208110156102fd57600080fd5b8101908080359060200190929190505050610af2565b005b6103416004803603602081101561032b57600080fd5b8101908080359060200190929190505050610ce0565b005b61034b610e12565b6040518082815260200191505060405180910390f35b610369610e18565b005b6103ad6004803603606081101561038157600080fd5b810190808035906020019092919080359060200190929190803515159060200190929190505050610e45565b005b6103b7610f76565b005b6103c16110e3565b604051808273ffffffffffffffffffffffffffffffffffffffff16815260200191505060405180910390f35b6103f5611109565b6040518082815260200191505060405180910390f35b61041361110f565b604051808273ffffffffffffffffffffffffffffffffffffffff16815260200191505060405180910390f35b61048b6004803603604081101561045557600080fd5b8101908080359060200190929190803573ffffffffffffffffffffffffffffffffffffffff169060200190929190505050611138565b604051808381526020018281526020019250505060405180910390f35b6104f4600480360360408110156104be57600080fd5b8101908080359060200190929190803573ffffffffffffffffffffffffffffffffffffffff169060200190929190505050611169565b6040518082815260200191505060405180910390f35b6105366004803603602081101561052057600080fd5b81019080803590602001909291905050506111cc565b005b61056e6004803603604081101561054e57600080fd5b81019080803590602001909291908035906020019092919050505061129c565b005b6105bc6004803603604081101561058657600080fd5b8101908080359060200190929190803573ffffffffffffffffffffffffffffffffffffffff169060200190929190505050611490565b6040518082815260200191505060405180910390f35b610614600480360360208110156105e857600080fd5b81019080803573ffffffffffffffffffffffffffffffffffffffff16906020019092919050505061170b565b005b6000600480549050905090565b60085481565b6004818154811061063657fe5b90600052602060002090600402016000915090508060000160009054906101000a900473ffffffffffffffffffffffffffffffffffffffff16908060010154908060020154908060030154905084565b60065481565b6106946118fd565b73ffffffffffffffffffffffffffffffffffffffff166106b261110f565b73ffffffffffffffffffffffffffffffffffffffff161461073b576040517f08c379a00000000000000000000000000000000000000000000000000000000081526004018080602001828103825260208152602001807f4f776e61626c653a2063616c6c6572206973206e6f7420746865206f776e657281525060200191505060405180910390fd5b801561074a57610749610e18565b5b6000600754431161075d5760075461075f565b435b90506107768460065461190590919063ffffffff16565b600681905550600460405180608001604052808573ffffffffffffffffffffffffffffffffffffffff1681526020018681526020018381526020016000815250908060018154018082558091505060019003906000526020600020906004020160009091909190915060008201518160000160006101000a81548173ffffffffffffffffffffffffffffffffffffffff021916908373ffffffffffffffffffffffffffffffffffffffff160217905550602082015181600101556040820151816002015560608201518160030155505050505050565b6000600754431161086057600090506108a8565b6000600854431061087357600854610875565b435b90506108a4600254610896600754840360035461198d90919063ffffffff16565b611a1390919063ffffffff16565b9150505b90565b6000600483815481106108ba57fe5b9060005260206000209060040201905060006005600085815260200190815260200160002060003373ffffffffffffffffffffffffffffffffffffffff1673ffffffffffffffffffffffffffffffffffffffff1681526020019081526020016000209050828160000154101561097b576040517f08c379a000000000000000000000000000000000000000000000000000000000815260040180806020018281038252602a815260200180612184602a913960400191505060405180910390fd5b61098484610af2565b60006109d882600101546109ca6ec097ce7bc90715b34b9f10000000006109bc8760030154876000015461198d90919063ffffffff16565b611a9690919063ffffffff16565b611a1390919063ffffffff16565b90506109e43382611b1f565b6109fb848360000154611a1390919063ffffffff16565b8260000181905550610a3f6ec097ce7bc90715b34b9f1000000000610a318560030154856000015461198d90919063ffffffff16565b611a9690919063ffffffff16565b8260010181905550610a9633858560000160009054906101000a900473ffffffffffffffffffffffffffffffffffffffff1673ffffffffffffffffffffffffffffffffffffffff16611c029092919063ffffffff16565b843373ffffffffffffffffffffffffffffffffffffffff167ff279e6a1f5e320cca91135676d9cb6e44ca8a08c0b88342bcdb1144f6511b568866040518082815260200191505060405180910390a35050505050565b60075481565b600060048281548110610b0157fe5b9060005260206000209060040201905060006008544310610b2457600854610b26565b435b905081600201548111610b3a575050610cdd565b60008260000160009054906101000a900473ffffffffffffffffffffffffffffffffffffffff1673ffffffffffffffffffffffffffffffffffffffff166370a08231306040518263ffffffff1660e01b8152600401808273ffffffffffffffffffffffffffffffffffffffff16815260200191505060206040518083038186803b158015610bc757600080fd5b505afa158015610bdb573d6000803e3d6000fd5b505050506040513d6020811015610bf157600080fd5b810190808051906020019092919050505090506000811415610c1e57818360020181905550505050610cdd565b6000610c37846002015484611a1390919063ffffffff16565b90506000610c7a600654610c6c8760010154610c5e6003548761198d90919063ffffffff16565b61198d90919063ffffffff16565b611a9690919063ffffffff16565b9050610cc6610cb384610ca56ec097ce7bc90715b34b9f10000000008561198d90919063ffffffff16565b611a9690919063ffffffff16565b866003015461190590919063ffffffff16565b856003018190555043856002018190555050505050505b50565b600060048281548110610cef57fe5b9060005260206000209060040201905060006005600084815260200190815260200160002060003373ffffffffffffffffffffffffffffffffffffffff1673ffffffffffffffffffffffffffffffffffffffff1681526020019081526020016000209050610da63382600001548460000160009054906101000a900473ffffffffffffffffffffffffffffffffffffffff1673ffffffffffffffffffffffffffffffffffffffff16611c029092919063ffffffff16565b823373ffffffffffffffffffffffffffffffffffffffff167fbb757047c2b5f3974fe26b7c10f732e7bce710b0952a71082702781e62ae059583600001546040518082815260200191505060405180910390a36000816000018190555060008160010181905550505050565b60025481565b6000600480549050905060005b81811015610e4157610e3681610af2565b806001019050610e25565b5050565b610e4d6118fd565b73ffffffffffffffffffffffffffffffffffffffff16610e6b61110f565b73ffffffffffffffffffffffffffffffffffffffff1614610ef4576040517f08c379a00000000000000000000000000000000000000000000000000000000081526004018080602001828103825260208152602001807f4f776e61626c653a2063616c6c6572206973206e6f7420746865206f776e657281525060200191505060405180910390fd5b8015610f0357610f02610e18565b5b610f4882610f3a60048681548110610f1757fe5b906000526020600020906004020160010154600654611a1390919063ffffffff16565b61190590919063ffffffff16565b6006819055508160048481548110610f5c57fe5b906000526020600020906004020160010181905550505050565b610f7e6118fd565b73ffffffffffffffffffffffffffffffffffffffff16610f9c61110f565b73ffffffffffffffffffffffffffffffffffffffff1614611025576040517f08c379a00000000000000000000000000000000000000000000000000000000081526004018080602001828103825260208152602001807f4f776e61626c653a2063616c6c6572206973206e6f7420746865206f776e657281525060200191505060405180910390fd5b600073ffffffffffffffffffffffffffffffffffffffff1660008054906101000a900473ffffffffffffffffffffffffffffffffffffffff1673ffffffffffffffffffffffffffffffffffffffff167f8be0079c531659141344cd1fd0a4f28419497f9722a3daafe3b4186f6b6457e060405160405180910390a360008060006101000a81548173ffffffffffffffffffffffffffffffffffffffff021916908373ffffffffffffffffffffffffffffffffffffffff160217905550565b600160009054906101000a900473ffffffffffffffffffffffffffffffffffffffff1681565b60035481565b60008060009054906101000a900473ffffffffffffffffffffffffffffffffffffffff16905090565b6005602052816000526040600020602052806000526040600020600091509150508060000154908060010154905082565b6000806005600085815260200190815260200160002060008473ffffffffffffffffffffffffffffffffffffffff1673ffffffffffffffffffffffffffffffffffffffff1681526020019081526020016000209050806000015491505092915050565b6008544310611226576040517f08c379a00000000000000000000000000000000000000000000000000000000081526004018080602001828103825260228152602001806121626022913960400191505060405180910390fd5b611275333083600160009054906101000a900473ffffffffffffffffffffffffffffffffffffffff1673ffffffffffffffffffffffffffffffffffffffff16611ca4909392919063ffffffff16565b61128a60035482611a9690919063ffffffff16565b60086000828254019250508190555050565b6000600483815481106112ab57fe5b9060005260206000209060040201905060006005600085815260200190815260200160002060003373ffffffffffffffffffffffffffffffffffffffff1673ffffffffffffffffffffffffffffffffffffffff168152602001908152602001600020905061131884610af2565b600081600001541115611387576000611379826001015461136b6ec097ce7bc90715b34b9f100000000061135d8760030154876000015461198d90919063ffffffff16565b611a9690919063ffffffff16565b611a1390919063ffffffff16565b90506113853382611b1f565b505b6113d83330858560000160009054906101000a900473ffffffffffffffffffffffffffffffffffffffff1673ffffffffffffffffffffffffffffffffffffffff16611ca4909392919063ffffffff16565b6113ef83826000015461190590919063ffffffff16565b81600001819055506114336ec097ce7bc90715b34b9f10000000006114258460030154846000015461198d90919063ffffffff16565b611a9690919063ffffffff16565b8160010181905550833373ffffffffffffffffffffffffffffffffffffffff167f90890809c654f11d6e72a28fa60149770a0d11ec6c92319d6ceb2bb0a4ea1a15856040518082815260200191505060405180910390a350505050565b600080600484815481106114a057fe5b9060005260206000209060040201905060006005600086815260200190815260200160002060008573ffffffffffffffffffffffffffffffffffffffff1673ffffffffffffffffffffffffffffffffffffffff168152602001908152602001600020905060008260030154905060008360000160009054906101000a900473ffffffffffffffffffffffffffffffffffffffff1673ffffffffffffffffffffffffffffffffffffffff166370a08231306040518263ffffffff1660e01b8152600401808273ffffffffffffffffffffffffffffffffffffffff16815260200191505060206040518083038186803b15801561159a57600080fd5b505afa1580156115ae573d6000803e3d6000fd5b505050506040513d60208110156115c457600080fd5b810190808051906020019092919050505090508360020154431180156115eb575060008114155b156116b1576000600854431061160357600854611605565b435b90506000611620866002015483611a1390919063ffffffff16565b9050600061166360065461165589600101546116476003548761198d90919063ffffffff16565b61198d90919063ffffffff16565b611a9690919063ffffffff16565b90506116ab61169c8561168e6ec097ce7bc90715b34b9f10000000008561198d90919063ffffffff16565b611a9690919063ffffffff16565b8661190590919063ffffffff16565b94505050505b6116ff83600101546116f16ec097ce7bc90715b34b9f10000000006116e386886000015461198d90919063ffffffff16565b611a9690919063ffffffff16565b611a1390919063ffffffff16565b94505050505092915050565b6117136118fd565b73ffffffffffffffffffffffffffffffffffffffff1661173161110f565b73ffffffffffffffffffffffffffffffffffffffff16146117ba576040517f08c379a00000000000000000000000000000000000000000000000000000000081526004018080602001828103825260208152602001807f4f776e61626c653a2063616c6c6572206973206e6f7420746865206f776e657281525060200191505060405180910390fd5b600073ffffffffffffffffffffffffffffffffffffffff168173ffffffffffffffffffffffffffffffffffffffff161415611840576040517f08c379a00000000000000000000000000000000000000000000000000000000081526004018080602001828103825260268152602001806120f56026913960400191505060405180910390fd5b8073ffffffffffffffffffffffffffffffffffffffff1660008054906101000a900473ffffffffffffffffffffffffffffffffffffffff1673ffffffffffffffffffffffffffffffffffffffff167f8be0079c531659141344cd1fd0a4f28419497f9722a3daafe3b4186f6b6457e060405160405180910390a3806000806101000a81548173ffffffffffffffffffffffffffffffffffffffff021916908373ffffffffffffffffffffffffffffffffffffffff16021790555050565b600033905090565b600080828401905083811015611983576040517f08c379a000000000000000000000000000000000000000000000000000000000815260040180806020018281038252601b8152602001807f536166654d6174683a206164646974696f6e206f766572666c6f77000000000081525060200191505060405180910390fd5b8091505092915050565b6000808314156119a05760009050611a0d565b60008284029050828482816119b157fe5b0414611a08576040517f08c379a00000000000000000000000000000000000000000000000000000000081526004018080602001828103825260218152602001806121416021913960400191505060405180910390fd5b809150505b92915050565b600082821115611a8b576040517f08c379a000000000000000000000000000000000000000000000000000000000815260040180806020018281038252601e8152602001807f536166654d6174683a207375627472616374696f6e206f766572666c6f77000081525060200191505060405180910390fd5b818303905092915050565b6000808211611b0d576040517f08c379a000000000000000000000000000000000000000000000000000000000815260040180806020018281038252601a8152602001807f536166654d6174683a206469766973696f6e206279207a65726f00000000000081525060200191505060405180910390fd5b818381611b1657fe5b04905092915050565b600160009054906101000a900473ffffffffffffffffffffffffffffffffffffffff1673ffffffffffffffffffffffffffffffffffffffff1663a9059cbb83836040518363ffffffff1660e01b8152600401808373ffffffffffffffffffffffffffffffffffffffff16815260200182815260200192505050602060405180830381600087803b158015611bb257600080fd5b505af1158015611bc6573d6000803e3d6000fd5b505050506040513d6020811015611bdc57600080fd5b810190808051906020019092919050505050806002600082825401925050819055505050565b611c9f8363a9059cbb60e01b8484604051602401808373ffffffffffffffffffffffffffffffffffffffff16815260200182815260200192505050604051602081830303815290604052907bffffffffffffffffffffffffffffffffffffffffffffffffffffffff19166020820180517bffffffffffffffffffffffffffffffffffffffffffffffffffffffff8381831617835250505050611d65565b505050565b611d5f846323b872dd60e01b858585604051602401808473ffffffffffffffffffffffffffffffffffffffff1681526020018373ffffffffffffffffffffffffffffffffffffffff1681526020018281526020019350505050604051602081830303815290604052907bffffffffffffffffffffffffffffffffffffffffffffffffffffffff19166020820180517bffffffffffffffffffffffffffffffffffffffffffffffffffffffff8381831617835250505050611d65565b50505050565b6060611dc7826040518060400160405280602081526020017f5361666545524332303a206c6f772d6c6576656c2063616c6c206661696c65648152508573ffffffffffffffffffffffffffffffffffffffff16611e549092919063ffffffff16565b9050600081511115611e4f57808060200190516020811015611de857600080fd5b8101908080519060200190929190505050611e4e576040517f08c379a000000000000000000000000000000000000000000000000000000000815260040180806020018281038252602a8152602001806121ae602a913960400191505060405180910390fd5b5b505050565b6060611e638484600085611e6c565b90509392505050565b606082471015611ec7576040517f08c379a000000000000000000000000000000000000000000000000000000000815260040180806020018281038252602681526020018061211b6026913960400191505060405180910390fd5b611ed085612015565b611f42576040517f08c379a000000000000000000000000000000000000000000000000000000000815260040180806020018281038252601d8152602001807f416464726573733a2063616c6c20746f206e6f6e2d636f6e747261637400000081525060200191505060405180910390fd5b600060608673ffffffffffffffffffffffffffffffffffffffff1685876040518082805190602001908083835b60208310611f925780518252602082019150602081019050602083039250611f6f565b6001836020036101000a03801982511681845116808217855250505050505090500191505060006040518083038185875af1925050503d8060008114611ff4576040519150601f19603f3d011682016040523d82523d6000602084013e611ff9565b606091505b5091509150612009828286612028565b92505050949350505050565b600080823b905060008111915050919050565b60608315612038578290506120ed565b60008351111561204b5782518084602001fd5b816040517f08c379a00000000000000000000000000000000000000000000000000000000081526004018080602001828103825283818151815260200191508051906020019080838360005b838110156120b2578082015181840152602081019050612097565b50505050905090810190601f1680156120df5780820380516001836020036101000a031916815260200191505b509250505060405180910390fd5b939250505056fe4f776e61626c653a206e6577206f776e657220697320746865207a65726f2061646472657373416464726573733a20696e73756666696369656e742062616c616e636520666f722063616c6c536166654d6174683a206d756c7469706c69636174696f6e206f766572666c6f7766756e643a20746f6f206c6174652c20746865206661726d20697320636c6f73656477697468647261773a2063616e2774207769746864726177206d6f7265207468616e206465706f7369745361666545524332303a204552433230206f7065726174696f6e20646964206e6f742073756363656564a26469706673582212202243ee68cebf40c6f91742edb74f859fc0887c9728327fc64862f33bd872c12a64736f6c634300060c0033",
  "immutableReferences": {},
  "source": "// SPDX-License-Identifier: MIT\npragma solidity ^0.6.12;\n\nimport \"@openzeppelin/contracts/token/ERC20/IERC20.sol\";\nimport \"@openzeppelin/contracts/token/ERC20/SafeERC20.sol\";\nimport \"@openzeppelin/contracts/utils/EnumerableSet.sol\";\nimport \"@openzeppelin/contracts/math/SafeMath.sol\";\nimport \"@openzeppelin/contracts/access/Ownable.sol\";\n\n// Farm distributes the ERC20 rewards based on staked LP to each user.\n//\n// Cloned from https://github.com/SashimiProject/sashimiswap/blob/master/contracts/MasterChef.sol\n// Modified by LTO Network to work for non-mintable ERC20.\ncontract Farm is Ownable {\n    using SafeMath for uint256;\n    using SafeERC20 for IERC20;\n\n    // Info of each user.\n    struct UserInfo {\n        uint256 amount;     // How many LP tokens the user has provided.\n        uint256 rewardDebt; // Reward debt. See explanation below.\n        //\n        // We do some fancy math here. Basically, any point in time, the amount of ERC20s\n        // entitled to a user but is pending to be distributed is:\n        //\n        //   pending reward = (user.amount * pool.accERC20PerShare) - user.rewardDebt\n        //\n        // Whenever a user deposits or withdraws LP tokens to a pool. Here's what happens:\n        //   1. The pool's `accERC20PerShare` (and `lastRewardBlock`) gets updated.\n        //   2. User receives the pending reward sent to his/her address.\n        //   3. User's `amount` gets updated.\n        //   4. User's `rewardDebt` gets updated.\n    }\n\n    // Info of each pool.\n    struct PoolInfo {\n        IERC20 lpToken;             // Address of LP token contract.\n        uint256 allocPoint;         // How many allocation points assigned to this pool. ERC20s to distribute per block.\n        uint256 lastRewardBlock;    // Last block number that ERC20s distribution occurs.\n        uint256 accERC20PerShare;   // Accumulated ERC20s per share, times 1e36.\n    }\n\n    // Address of the ERC20 Token contract.\n    IERC20 public erc20;\n    // The total amount of ERC20 that's paid out as reward.\n    uint256 public paidOut = 0;\n    // ERC20 tokens rewarded per block.\n    uint256 public rewardPerBlock;\n\n    // Info of each pool.\n    PoolInfo[] public poolInfo;\n    // Info of each user that stakes LP tokens.\n    mapping (uint256 => mapping (address => UserInfo)) public userInfo;\n    // Total allocation points. Must be the sum of all allocation points in all pools.\n    uint256 public totalAllocPoint = 0;\n\n    // The block number when farming starts.\n    uint256 public startBlock;\n    // The block number when farming ends.\n    uint256 public endBlock;\n\n    event Deposit(address indexed user, uint256 indexed pid, uint256 amount);\n    event Withdraw(address indexed user, uint256 indexed pid, uint256 amount);\n    event EmergencyWithdraw(address indexed user, uint256 indexed pid, uint256 amount);\n\n    constructor(IERC20 _erc20, uint256 _rewardPerBlock, uint256 _startBlock) public {\n        erc20 = _erc20;\n        rewardPerBlock = _rewardPerBlock;\n        startBlock = _startBlock;\n        endBlock = _startBlock;\n    }\n\n    // Number of LP pools\n    function poolLength() external view returns (uint256) {\n        return poolInfo.length;\n    }\n\n    // Fund the farm, increase the end block\n    function fund(uint256 _amount) public {\n        require(block.number < endBlock, \"fund: too late, the farm is closed\");\n\n        erc20.safeTransferFrom(address(msg.sender), address(this), _amount);\n        endBlock += _amount.div(rewardPerBlock);\n    }\n\n    // Add a new lp to the pool. Can only be called by the owner.\n    // DO NOT add the same LP token more than once. Rewards will be messed up if you do.\n    function add(uint256 _allocPoint, IERC20 _lpToken, bool _withUpdate) public onlyOwner {\n        if (_withUpdate) {\n            massUpdatePools();\n        }\n        uint256 lastRewardBlock = block.number > startBlock ? block.number : startBlock;\n        totalAllocPoint = totalAllocPoint.add(_allocPoint);\n        poolInfo.push(PoolInfo({\n            lpToken: _lpToken,\n            allocPoint: _allocPoint,\n            lastRewardBlock: lastRewardBlock,\n            accERC20PerShare: 0\n        }));\n    }\n\n    // Update the given pool's ERC20 allocation point. Can only be called by the owner.\n    function set(uint256 _pid, uint256 _allocPoint, bool _withUpdate) public onlyOwner {\n        if (_withUpdate) {\n            massUpdatePools();\n        }\n        totalAllocPoint = totalAllocPoint.sub(poolInfo[_pid].allocPoint).add(_allocPoint);\n        poolInfo[_pid].allocPoint = _allocPoint;\n    }\n\n    // View function to see deposited LP for a user.\n    function deposited(uint256 _pid, address _user) external view returns (uint256) {\n        UserInfo storage user = userInfo[_pid][_user];\n        return user.amount;\n    }\n\n    // View function to see pending ERC20s for a user.\n    function pending(uint256 _pid, address _user) external view returns (uint256) {\n        PoolInfo storage pool = poolInfo[_pid];\n        UserInfo storage user = userInfo[_pid][_user];\n        uint256 accERC20PerShare = pool.accERC20PerShare;\n        uint256 lpSupply = pool.lpToken.balanceOf(address(this));\n\n        if (block.number > pool.lastRewardBlock && lpSupply != 0) {\n            uint256 lastBlock = block.number < endBlock ? block.number : endBlock;\n            uint256 nrOfBlocks = lastBlock.sub(pool.lastRewardBlock);\n            uint256 erc20Reward = nrOfBlocks.mul(rewardPerBlock).mul(pool.allocPoint).div(totalAllocPoint);\n            accERC20PerShare = accERC20PerShare.add(erc20Reward.mul(1e36).div(lpSupply));\n        }\n\n        return user.amount.mul(accERC20PerShare).div(1e36).sub(user.rewardDebt);\n    }\n\n    // View function for total reward the farm has yet to pay out.\n    function totalPending() external view returns (uint256) {\n        if (block.number <= startBlock) {\n            return 0;\n        }\n\n        uint256 lastBlock = block.number < endBlock ? block.number : endBlock;\n        return rewardPerBlock.mul(lastBlock - startBlock).sub(paidOut);\n    }\n\n    // Update reward variables for all pools. Be careful of gas spending!\n    function massUpdatePools() public {\n        uint256 length = poolInfo.length;\n        for (uint256 pid = 0; pid < length; ++pid) {\n            updatePool(pid);\n        }\n    }\n\n    // Update reward variables of the given pool to be up-to-date.\n    function updatePool(uint256 _pid) public {\n        PoolInfo storage pool = poolInfo[_pid];\n        uint256 lastBlock = block.number < endBlock ? block.number : endBlock;\n\n        if (lastBlock <= pool.lastRewardBlock) {\n            return;\n        }\n        uint256 lpSupply = pool.lpToken.balanceOf(address(this));\n        if (lpSupply == 0) {\n            pool.lastRewardBlock = lastBlock;\n            return;\n        }\n\n        uint256 nrOfBlocks = lastBlock.sub(pool.lastRewardBlock);\n        uint256 erc20Reward = nrOfBlocks.mul(rewardPerBlock).mul(pool.allocPoint).div(totalAllocPoint);\n\n        pool.accERC20PerShare = pool.accERC20PerShare.add(erc20Reward.mul(1e36).div(lpSupply));\n        pool.lastRewardBlock = block.number;\n    }\n\n    // Deposit LP tokens to Farm for ERC20 allocation.\n    function deposit(uint256 _pid, uint256 _amount) public {\n        PoolInfo storage pool = poolInfo[_pid];\n        UserInfo storage user = userInfo[_pid][msg.sender];\n        updatePool(_pid);\n        if (user.amount > 0) {\n            uint256 pendingAmount = user.amount.mul(pool.accERC20PerShare).div(1e36).sub(user.rewardDebt);\n            erc20Transfer(msg.sender, pendingAmount);\n        }\n        pool.lpToken.safeTransferFrom(address(msg.sender), address(this), _amount);\n        user.amount = user.amount.add(_amount);\n        user.rewardDebt = user.amount.mul(pool.accERC20PerShare).div(1e36);\n        emit Deposit(msg.sender, _pid, _amount);\n    }\n\n    // Withdraw LP tokens from Farm.\n    function withdraw(uint256 _pid, uint256 _amount) public {\n        PoolInfo storage pool = poolInfo[_pid];\n        UserInfo storage user = userInfo[_pid][msg.sender];\n        require(user.amount >= _amount, \"withdraw: can't withdraw more than deposit\");\n        updatePool(_pid);\n        uint256 pendingAmount = user.amount.mul(pool.accERC20PerShare).div(1e36).sub(user.rewardDebt);\n        erc20Transfer(msg.sender, pendingAmount);\n        user.amount = user.amount.sub(_amount);\n        user.rewardDebt = user.amount.mul(pool.accERC20PerShare).div(1e36);\n        pool.lpToken.safeTransfer(address(msg.sender), _amount);\n        emit Withdraw(msg.sender, _pid, _amount);\n    }\n\n    // Withdraw without caring about rewards. EMERGENCY ONLY.\n    function emergencyWithdraw(uint256 _pid) public {\n        PoolInfo storage pool = poolInfo[_pid];\n        UserInfo storage user = userInfo[_pid][msg.sender];\n        pool.lpToken.safeTransfer(address(msg.sender), user.amount);\n        emit EmergencyWithdraw(msg.sender, _pid, user.amount);\n        user.amount = 0;\n        user.rewardDebt = 0;\n    }\n\n    // Transfer ERC20 and update the required ERC20 to payout all rewards\n    function erc20Transfer(address _to, uint256 _amount) internal {\n        erc20.transfer(_to, _amount);\n        paidOut += _amount;\n    }\n}",
  "sourcePath": "/home/traumaxp/TGRB-Folder/TGR-TEST-TRUFFLE/crowdsale_test/contracts/Farm.sol",
  "compiler": {
    "name": "solc",
    "version": "0.6.12+commit.27d51765.Emscripten.clang"
  },
  "schemaVersion": "3.2.2-next.0",
  "updatedAt": "2021-04-20T12:11:11.222Z",
  "devdoc": {
    "kind": "dev",
    "methods": {
      "owner()": {
        "details": "Returns the address of the current owner."
      },
      "renounceOwnership()": {
        "details": "Leaves the contract without owner. It will not be possible to call `onlyOwner` functions anymore. Can only be called by the current owner. NOTE: Renouncing ownership will leave the contract without an owner, thereby removing any functionality that is only available to the owner."
      },
      "transferOwnership(address)": {
        "details": "Transfers ownership of the contract to a new account (`newOwner`). Can only be called by the current owner."
      }
    },
    "version": 1
  },
  "userdoc": {
    "kind": "user",
    "methods": {},
    "version": 1
  }
}