{
  "contractName": "MyCrowdsale",
  "abi": [
    {
      "inputs": [
        {
          "internalType": "uint256",
          "name": "rate",
          "type": "uint256"
        },
        {
          "internalType": "address payable",
          "name": "wallet",
          "type": "address"
        },
        {
          "internalType": "contract MyToken",
          "name": "token",
          "type": "address"
        },
        {
          "internalType": "uint256",
          "name": "openingTime",
          "type": "uint256"
        },
        {
          "internalType": "uint256",
          "name": "closingTime",
          "type": "uint256"
        },
        {
          "internalType": "address",
          "name": "_foundersFund",
          "type": "address"
        },
        {
          "internalType": "address",
          "name": "_foundationFund",
          "type": "address"
        },
        {
          "internalType": "address",
          "name": "_partnersFund",
          "type": "address"
        },
        {
          "internalType": "uint256",
          "name": "_releaseTimeFounders",
          "type": "uint256"
        }
      ],
      "payable": false,
      "stateMutability": "nonpayable",
      "type": "constructor"
    },
    {
      "anonymous": false,
      "inputs": [
        {
          "indexed": false,
          "internalType": "uint256",
          "name": "prevClosingTime",
          "type": "uint256"
        },
        {
          "indexed": false,
          "internalType": "uint256",
          "name": "newClosingTime",
          "type": "uint256"
        }
      ],
      "name": "TimedCrowdsaleExtended",
      "type": "event"
    },
    {
      "anonymous": false,
      "inputs": [
        {
          "indexed": true,
          "internalType": "address",
          "name": "purchaser",
          "type": "address"
        },
        {
          "indexed": true,
          "internalType": "address",
          "name": "beneficiary",
          "type": "address"
        },
        {
          "indexed": false,
          "internalType": "uint256",
          "name": "value",
          "type": "uint256"
        },
        {
          "indexed": false,
          "internalType": "uint256",
          "name": "amount",
          "type": "uint256"
        }
      ],
      "name": "TokensPurchased",
      "type": "event"
    },
    {
      "payable": true,
      "stateMutability": "payable",
      "type": "fallback"
    },
    {
      "constant": true,
      "inputs": [
        {
          "internalType": "address",
          "name": "account",
          "type": "address"
        }
      ],
      "name": "balanceOf",
      "outputs": [
        {
          "internalType": "uint256",
          "name": "",
          "type": "uint256"
        }
      ],
      "payable": false,
      "stateMutability": "view",
      "type": "function"
    },
    {
      "constant": false,
      "inputs": [
        {
          "internalType": "address",
          "name": "beneficiary",
          "type": "address"
        }
      ],
      "name": "buyTokens",
      "outputs": [],
      "payable": true,
      "stateMutability": "payable",
      "type": "function"
    },
    {
      "constant": true,
      "inputs": [],
      "name": "closingTime",
      "outputs": [
        {
          "internalType": "uint256",
          "name": "",
          "type": "uint256"
        }
      ],
      "payable": false,
      "stateMutability": "view",
      "type": "function"
    },
    {
      "constant": true,
      "inputs": [
        {
          "internalType": "address",
          "name": "",
          "type": "address"
        }
      ],
      "name": "contributions",
      "outputs": [
        {
          "internalType": "uint256",
          "name": "",
          "type": "uint256"
        }
      ],
      "payable": false,
      "stateMutability": "view",
      "type": "function"
    },
    {
      "constant": true,
      "inputs": [],
      "name": "finalized",
      "outputs": [
        {
          "internalType": "bool",
          "name": "",
          "type": "bool"
        }
      ],
      "payable": false,
      "stateMutability": "view",
      "type": "function"
    },
    {
      "constant": true,
      "inputs": [],
      "name": "foundationFund",
      "outputs": [
        {
          "internalType": "address",
          "name": "",
          "type": "address"
        }
      ],
      "payable": false,
      "stateMutability": "view",
      "type": "function"
    },
    {
      "constant": true,
      "inputs": [],
      "name": "foundationPercentage",
      "outputs": [
        {
          "internalType": "uint256",
          "name": "",
          "type": "uint256"
        }
      ],
      "payable": false,
      "stateMutability": "view",
      "type": "function"
    },
    {
      "constant": true,
      "inputs": [],
      "name": "foundationTimelock",
      "outputs": [
        {
          "internalType": "address",
          "name": "",
          "type": "address"
        }
      ],
      "payable": false,
      "stateMutability": "view",
      "type": "function"
    },
    {
      "constant": true,
      "inputs": [],
      "name": "foundersFund",
      "outputs": [
        {
          "internalType": "address",
          "name": "",
          "type": "address"
        }
      ],
      "payable": false,
      "stateMutability": "view",
      "type": "function"
    },
    {
      "constant": true,
      "inputs": [],
      "name": "foundersPercentage",
      "outputs": [
        {
          "internalType": "uint256",
          "name": "",
          "type": "uint256"
        }
      ],
      "payable": false,
      "stateMutability": "view",
      "type": "function"
    },
    {
      "constant": true,
      "inputs": [],
      "name": "foundersTimelock",
      "outputs": [
        {
          "internalType": "address",
          "name": "",
          "type": "address"
        }
      ],
      "payable": false,
      "stateMutability": "view",
      "type": "function"
    },
    {
      "constant": true,
      "inputs": [],
      "name": "hasClosed",
      "outputs": [
        {
          "internalType": "bool",
          "name": "",
          "type": "bool"
        }
      ],
      "payable": false,
      "stateMutability": "view",
      "type": "function"
    },
    {
      "constant": true,
      "inputs": [],
      "name": "isOpen",
      "outputs": [
        {
          "internalType": "bool",
          "name": "",
          "type": "bool"
        }
      ],
      "payable": false,
      "stateMutability": "view",
      "type": "function"
    },
    {
      "constant": true,
      "inputs": [],
      "name": "openingTime",
      "outputs": [
        {
          "internalType": "uint256",
          "name": "",
          "type": "uint256"
        }
      ],
      "payable": false,
      "stateMutability": "view",
      "type": "function"
    },
    {
      "constant": true,
      "inputs": [],
      "name": "partnersFund",
      "outputs": [
        {
          "internalType": "address",
          "name": "",
          "type": "address"
        }
      ],
      "payable": false,
      "stateMutability": "view",
      "type": "function"
    },
    {
      "constant": true,
      "inputs": [],
      "name": "partnersPercentage",
      "outputs": [
        {
          "internalType": "uint256",
          "name": "",
          "type": "uint256"
        }
      ],
      "payable": false,
      "stateMutability": "view",
      "type": "function"
    },
    {
      "constant": true,
      "inputs": [],
      "name": "partnersTimelock",
      "outputs": [
        {
          "internalType": "address",
          "name": "",
          "type": "address"
        }
      ],
      "payable": false,
      "stateMutability": "view",
      "type": "function"
    },
    {
      "constant": true,
      "inputs": [],
      "name": "rate",
      "outputs": [
        {
          "internalType": "uint256",
          "name": "",
          "type": "uint256"
        }
      ],
      "payable": false,
      "stateMutability": "view",
      "type": "function"
    },
    {
      "constant": true,
      "inputs": [],
      "name": "releaseTimeFounders",
      "outputs": [
        {
          "internalType": "uint256",
          "name": "",
          "type": "uint256"
        }
      ],
      "payable": false,
      "stateMutability": "view",
      "type": "function"
    },
    {
      "constant": true,
      "inputs": [],
      "name": "token",
      "outputs": [
        {
          "internalType": "contract IERC20",
          "name": "",
          "type": "address"
        }
      ],
      "payable": false,
      "stateMutability": "view",
      "type": "function"
    },
    {
      "constant": true,
      "inputs": [],
      "name": "tokenSalePercentage",
      "outputs": [
        {
          "internalType": "uint256",
          "name": "",
          "type": "uint256"
        }
      ],
      "payable": false,
      "stateMutability": "view",
      "type": "function"
    },
    {
      "constant": true,
      "inputs": [],
      "name": "wallet",
      "outputs": [
        {
          "internalType": "address payable",
          "name": "",
          "type": "address"
        }
      ],
      "payable": false,
      "stateMutability": "view",
      "type": "function"
    },
    {
      "constant": true,
      "inputs": [],
      "name": "weiRaised",
      "outputs": [
        {
          "internalType": "uint256",
          "name": "",
          "type": "uint256"
        }
      ],
      "payable": false,
      "stateMutability": "view",
      "type": "function"
    },
    {
      "constant": false,
      "inputs": [
        {
          "internalType": "address",
          "name": "beneficiary",
          "type": "address"
        }
      ],
      "name": "withdrawTokens",
      "outputs": [],
      "payable": false,
      "stateMutability": "nonpayable",
      "type": "function"
    },
    {
      "constant": true,
      "inputs": [
        {
          "internalType": "address",
          "name": "_beneficiary",
          "type": "address"
        }
      ],
      "name": "getUserContribution",
      "outputs": [
        {
          "internalType": "uint256",
          "name": "",
          "type": "uint256"
        }
      ],
      "payable": false,
      "stateMutability": "view",
      "type": "function"
    },
    {
      "constant": false,
      "inputs": [
        {
          "internalType": "address",
          "name": "beneficiary",
          "type": "address"
        },
        {
          "internalType": "uint256",
          "name": "weiAmount",
          "type": "uint256"
        }
      ],
      "name": "validPurchase",
      "outputs": [],
      "payable": false,
      "stateMutability": "nonpayable",
      "type": "function"
    }
  ],
  "bytecode": "0x60806040526046600955600a8055600a600b55600a600c553480156200002457600080fd5b50604051620023eb380380620023eb83398181016040526101208110156200004b57600080fd5b8101908080519060200190929190805190602001909291908051906020019092919080519060200190929190805190602001909291908051906020019092919080519060200190929190805190602001909291908051906020019092919050505085858a8a8a60016000806101000a81548160ff0219169083151502179055506000831162000142576040517f08c379a00000000000000000000000000000000000000000000000000000000081526004018080602001828103825260148152602001807f43726f776473616c653a2072617465206973203000000000000000000000000081525060200191505060405180910390fd5b600073ffffffffffffffffffffffffffffffffffffffff168273ffffffffffffffffffffffffffffffffffffffff161415620001ca576040517f08c379a0000000000000000000000000000000000000000000000000000000008152600401808060200182810382526025815260200180620023c66025913960400191505060405180910390fd5b600073ffffffffffffffffffffffffffffffffffffffff168173ffffffffffffffffffffffffffffffffffffffff16141562000252576040517f08c379a0000000000000000000000000000000000000000000000000000000008152600401808060200182810382526024815260200180620023a26024913960400191505060405180910390fd5b8260028190555081600160006101000a81548173ffffffffffffffffffffffffffffffffffffffff021916908373ffffffffffffffffffffffffffffffffffffffff16021790555080600060016101000a81548173ffffffffffffffffffffffffffffffffffffffff021916908373ffffffffffffffffffffffffffffffffffffffff1602179055505050504282101562000339576040517f08c379a0000000000000000000000000000000000000000000000000000000008152600401808060200182810382526033815260200180620023386033913960400191505060405180910390fd5b81811162000393576040517f08c379a00000000000000000000000000000000000000000000000000000000081526004018080602001828103825260378152602001806200236b6037913960400191505060405180910390fd5b81600481905550806005819055505050604051620003b190620004e8565b604051809103906000f080158015620003ce573d6000803e3d6000fd5b50600760006101000a81548173ffffffffffffffffffffffffffffffffffffffff021916908373ffffffffffffffffffffffffffffffffffffffff16021790555083600d60006101000a81548173ffffffffffffffffffffffffffffffffffffffff021916908373ffffffffffffffffffffffffffffffffffffffff16021790555082600e60006101000a81548173ffffffffffffffffffffffffffffffffffffffff021916908373ffffffffffffffffffffffffffffffffffffffff16021790555081600f60006101000a81548173ffffffffffffffffffffffffffffffffffffffff021916908373ffffffffffffffffffffffffffffffffffffffff16021790555080601381905550505050505050505050620004f6565b6106208062001d1883390190565b61181280620005066000396000f3fe6080604052600436106101815760003560e01c8063864329e3116100d1578063bb8b2b471161008a578063ec8ac4d811610064578063ec8ac4d814610789578063ee93cb6c146107cd578063f45b9bed146107f8578063fc0c546a1461082357610181565b8063bb8b2b4714610676578063c440008e146106db578063ec0de26e1461073257610181565b8063864329e3146104ec578063926f0c7b14610517578063a3a3382b1461056e578063b3f05b97146105c5578063b63e53e0146105f4578063b7a8807c1461064b57610181565b806347535d7b1161013e578063521eb27311610118578063521eb273146103ae57806353c08ea21461040557806364ceed991461043057806370a082311461048757610181565b806347535d7b1461030357806349df728c146103325780634b6753bc1461038357610181565b80631515bc2b146101935780632a6033bd146101c25780632c4e722e1461021d5780634042b66f1461024857806342e94c901461027357806346daa242146102d8575b61019161018c61087a565b610882565b005b34801561019f57600080fd5b506101a8610a0d565b604051808215151515815260200191505060405180910390f35b3480156101ce57600080fd5b5061021b600480360360408110156101e557600080fd5b81019080803573ffffffffffffffffffffffffffffffffffffffff16906020019092919080359060200190929190505050610a19565b005b34801561022957600080fd5b50610232610ac8565b6040518082815260200191505060405180910390f35b34801561025457600080fd5b5061025d610ad2565b6040518082815260200191505060405180910390f35b34801561027f57600080fd5b506102c26004803603602081101561029657600080fd5b81019080803573ffffffffffffffffffffffffffffffffffffffff169060200190929190505050610adc565b6040518082815260200191505060405180910390f35b3480156102e457600080fd5b506102ed610af4565b6040518082815260200191505060405180910390f35b34801561030f57600080fd5b50610318610afa565b604051808215151515815260200191505060405180910390f35b34801561033e57600080fd5b506103816004803603602081101561035557600080fd5b81019080803573ffffffffffffffffffffffffffffffffffffffff169060200190929190505050610b15565b005b34801561038f57600080fd5b50610398610d54565b6040518082815260200191505060405180910390f35b3480156103ba57600080fd5b506103c3610d5e565b604051808273ffffffffffffffffffffffffffffffffffffffff1673ffffffffffffffffffffffffffffffffffffffff16815260200191505060405180910390f35b34801561041157600080fd5b5061041a610d88565b6040518082815260200191505060405180910390f35b34801561043c57600080fd5b50610445610d8e565b604051808273ffffffffffffffffffffffffffffffffffffffff1673ffffffffffffffffffffffffffffffffffffffff16815260200191505060405180910390f35b34801561049357600080fd5b506104d6600480360360208110156104aa57600080fd5b81019080803573ffffffffffffffffffffffffffffffffffffffff169060200190929190505050610db4565b6040518082815260200191505060405180910390f35b3480156104f857600080fd5b50610501610dfd565b6040518082815260200191505060405180910390f35b34801561052357600080fd5b5061052c610e03565b604051808273ffffffffffffffffffffffffffffffffffffffff1673ffffffffffffffffffffffffffffffffffffffff16815260200191505060405180910390f35b34801561057a57600080fd5b50610583610e29565b604051808273ffffffffffffffffffffffffffffffffffffffff1673ffffffffffffffffffffffffffffffffffffffff16815260200191505060405180910390f35b3480156105d157600080fd5b506105da610e4f565b604051808215151515815260200191505060405180910390f35b34801561060057600080fd5b50610609610e62565b604051808273ffffffffffffffffffffffffffffffffffffffff1673ffffffffffffffffffffffffffffffffffffffff16815260200191505060405180910390f35b34801561065757600080fd5b50610660610e88565b6040518082815260200191505060405180910390f35b34801561068257600080fd5b506106c56004803603602081101561069957600080fd5b81019080803573ffffffffffffffffffffffffffffffffffffffff169060200190929190505050610e92565b6040518082815260200191505060405180910390f35b3480156106e757600080fd5b506106f0610edb565b604051808273ffffffffffffffffffffffffffffffffffffffff1673ffffffffffffffffffffffffffffffffffffffff16815260200191505060405180910390f35b34801561073e57600080fd5b50610747610f01565b604051808273ffffffffffffffffffffffffffffffffffffffff1673ffffffffffffffffffffffffffffffffffffffff16815260200191505060405180910390f35b6107cb6004803603602081101561079f57600080fd5b81019080803573ffffffffffffffffffffffffffffffffffffffff169060200190929190505050610882565b005b3480156107d957600080fd5b506107e2610f27565b6040518082815260200191505060405180910390f35b34801561080457600080fd5b5061080d610f2d565b6040518082815260200191505060405180910390f35b34801561082f57600080fd5b50610838610f33565b604051808273ffffffffffffffffffffffffffffffffffffffff1673ffffffffffffffffffffffffffffffffffffffff16815260200191505060405180910390f35b600033905090565b6000809054906101000a900460ff16610903576040517f08c379a000000000000000000000000000000000000000000000000000000000815260040180806020018281038252601f8152602001807f5265656e7472616e637947756172643a207265656e7472616e742063616c6c0081525060200191505060405180910390fd5b60008060006101000a81548160ff021916908315150217905550600034905061092c8282610f5c565b600061093782610f6a565b905061094e82600354610f8890919063ffffffff16565b60038190555061095e8382611010565b8273ffffffffffffffffffffffffffffffffffffffff1661097d61087a565b73ffffffffffffffffffffffffffffffffffffffff167f6faf93231a456e552dbc9961f58d9713ee4f2e69d15f1975b050ef0911053a7b8484604051808381526020018281526020019250505060405180910390a36109dc83836110d5565b6109e46110d9565b6109ee8383611144565b505060016000806101000a81548160ff02191690831515021790555050565b60006005544211905090565b610a238282610f5c565b6000600860008473ffffffffffffffffffffffffffffffffffffffff1673ffffffffffffffffffffffffffffffffffffffff1681526020019081526020016000205490506000610a7c8383610f8890919063ffffffff16565b905080600860008673ffffffffffffffffffffffffffffffffffffffff1673ffffffffffffffffffffffffffffffffffffffff1681526020019081526020016000208190555050505050565b6000600254905090565b6000600354905090565b60086020528060005260406000206000915090505481565b60095481565b60006004544210158015610b1057506005544211155b905090565b610b1d610a0d565b610b72576040517f08c379a00000000000000000000000000000000000000000000000000000000081526004018080602001828103825260218152602001806117936021913960400191505060405180910390fd5b6000600660008373ffffffffffffffffffffffffffffffffffffffff1673ffffffffffffffffffffffffffffffffffffffff16815260200190815260200160002054905060008111610c0f576040517f08c379a00000000000000000000000000000000000000000000000000000000081526004018080602001828103825260388152602001806117106038913960400191505060405180910390fd5b6000600660008473ffffffffffffffffffffffffffffffffffffffff1673ffffffffffffffffffffffffffffffffffffffff16815260200190815260200160002081905550600760009054906101000a900473ffffffffffffffffffffffffffffffffffffffff1673ffffffffffffffffffffffffffffffffffffffff1663beabacc8610c9a610f33565b84846040518463ffffffff1660e01b8152600401808473ffffffffffffffffffffffffffffffffffffffff1673ffffffffffffffffffffffffffffffffffffffff1681526020018373ffffffffffffffffffffffffffffffffffffffff1673ffffffffffffffffffffffffffffffffffffffff1681526020018281526020019350505050600060405180830381600087803b158015610d3857600080fd5b505af1158015610d4c573d6000803e3d6000fd5b505050505050565b6000600554905090565b6000600160009054906101000a900473ffffffffffffffffffffffffffffffffffffffff16905090565b600a5481565b601060009054906101000a900473ffffffffffffffffffffffffffffffffffffffff1681565b6000600660008373ffffffffffffffffffffffffffffffffffffffff1673ffffffffffffffffffffffffffffffffffffffff168152602001908152602001600020549050919050565b600b5481565b600f60009054906101000a900473ffffffffffffffffffffffffffffffffffffffff1681565b600e60009054906101000a900473ffffffffffffffffffffffffffffffffffffffff1681565b601460009054906101000a900460ff1681565b601260009054906101000a900473ffffffffffffffffffffffffffffffffffffffff1681565b6000600454905090565b6000600860008373ffffffffffffffffffffffffffffffffffffffff1673ffffffffffffffffffffffffffffffffffffffff168152602001908152602001600020549050919050565b600d60009054906101000a900473ffffffffffffffffffffffffffffffffffffffff1681565b601160009054906101000a900473ffffffffffffffffffffffffffffffffffffffff1681565b60135481565b600c5481565b60008060019054906101000a900473ffffffffffffffffffffffffffffffffffffffff16905090565b610f668282611148565b5050565b6000610f81600254836111d090919063ffffffff16565b9050919050565b600080828401905083811015611006576040517f08c379a000000000000000000000000000000000000000000000000000000000815260040180806020018281038252601b8152602001807f536166654d6174683a206164646974696f6e206f766572666c6f77000000000081525060200191505060405180910390fd5b8091505092915050565b61106281600660008573ffffffffffffffffffffffffffffffffffffffff1673ffffffffffffffffffffffffffffffffffffffff16815260200190815260200160002054610f8890919063ffffffff16565b600660008473ffffffffffffffffffffffffffffffffffffffff1673ffffffffffffffffffffffffffffffffffffffff168152602001908152602001600020819055506110d1600760009054906101000a900473ffffffffffffffffffffffffffffffffffffffff1682611256565b5050565b5050565b600160009054906101000a900473ffffffffffffffffffffffffffffffffffffffff1673ffffffffffffffffffffffffffffffffffffffff166108fc349081150290604051600060405180830381858888f19350505050158015611141573d6000803e3d6000fd5b50565b5050565b611150610afa565b6111c2576040517f08c379a00000000000000000000000000000000000000000000000000000000081526004018080602001828103825260188152602001807f54696d656443726f776473616c653a206e6f74206f70656e000000000000000081525060200191505060405180910390fd5b6111cc82826112a7565b5050565b6000808314156111e35760009050611250565b60008284029050828482816111f457fe5b041461124b576040517f08c379a00000000000000000000000000000000000000000000000000000000081526004018080602001828103825260218152602001806117486021913960400191505060405180910390fd5b809150505b92915050565b6112a38282600060019054906101000a900473ffffffffffffffffffffffffffffffffffffffff1673ffffffffffffffffffffffffffffffffffffffff166113a89092919063ffffffff16565b5050565b600073ffffffffffffffffffffffffffffffffffffffff168273ffffffffffffffffffffffffffffffffffffffff16141561132d576040517f08c379a000000000000000000000000000000000000000000000000000000000815260040180806020018281038252602a815260200180611769602a913960400191505060405180910390fd5b60008114156113a4576040517f08c379a00000000000000000000000000000000000000000000000000000000081526004018080602001828103825260198152602001807f43726f776473616c653a20776569416d6f756e7420697320300000000000000081525060200191505060405180910390fd5b5050565b611474838473ffffffffffffffffffffffffffffffffffffffff1663a9059cbb905060e01b8484604051602401808373ffffffffffffffffffffffffffffffffffffffff1673ffffffffffffffffffffffffffffffffffffffff16815260200182815260200192505050604051602081830303815290604052907bffffffffffffffffffffffffffffffffffffffffffffffffffffffff19166020820180517bffffffffffffffffffffffffffffffffffffffffffffffffffffffff8381831617835250505050611479565b505050565b6114988273ffffffffffffffffffffffffffffffffffffffff166116c4565b61150a576040517f08c379a000000000000000000000000000000000000000000000000000000000815260040180806020018281038252601f8152602001807f5361666545524332303a2063616c6c20746f206e6f6e2d636f6e74726163740081525060200191505060405180910390fd5b600060608373ffffffffffffffffffffffffffffffffffffffff16836040518082805190602001908083835b602083106115595780518252602082019150602081019050602083039250611536565b6001836020036101000a0380198251168184511680821785525050505050509050019150506000604051808303816000865af19150503d80600081146115bb576040519150601f19603f3d011682016040523d82523d6000602084013e6115c0565b606091505b509150915081611638576040517f08c379a00000000000000000000000000000000000000000000000000000000081526004018080602001828103825260208152602001807f5361666545524332303a206c6f772d6c6576656c2063616c6c206661696c656481525060200191505060405180910390fd5b6000815111156116be5780806020019051602081101561165757600080fd5b81019080805190602001909291905050506116bd576040517f08c379a000000000000000000000000000000000000000000000000000000000815260040180806020018281038252602a8152602001806117b4602a913960400191505060405180910390fd5b5b50505050565b60008060007fc5d2460186f7233c927e7db2dcc703c0e500b653ca82273b7bfad8045d85a47060001b9050833f915080821415801561170657506000801b8214155b9250505091905056fe506f737444656c697665727943726f776473616c653a2062656e6566696369617279206973206e6f742064756520616e7920746f6b656e73536166654d6174683a206d756c7469706c69636174696f6e206f766572666c6f7743726f776473616c653a2062656e656669636961727920697320746865207a65726f2061646472657373506f737444656c697665727943726f776473616c653a206e6f7420636c6f7365645361666545524332303a204552433230206f7065726174696f6e20646964206e6f742073756363656564a265627a7a723158207195987ee7ef6c299f1cacde29f0dab9b2dbfbc04eb0c9eb649b50cd8196c7bb64736f6c63430005110032608060405260006100146100bf60201b60201c565b9050806000806101000a81548173ffffffffffffffffffffffffffffffffffffffff021916908373ffffffffffffffffffffffffffffffffffffffff1602179055507f4101e71e974f68df5e9730cc223280b41654676bbb052cdcc735c3337e64d2d981604051808273ffffffffffffffffffffffffffffffffffffffff1673ffffffffffffffffffffffffffffffffffffffff16815260200191505060405180910390a1506100c7565b600033905090565b61054a806100d66000396000f3fe608060405234801561001057600080fd5b50600436106100415760003560e01c80632348238c14610046578063beabacc81461008a578063c6dbdf61146100f8575b600080fd5b6100886004803603602081101561005c57600080fd5b81019080803573ffffffffffffffffffffffffffffffffffffffff169060200190929190505050610142565b005b6100f6600480360360608110156100a057600080fd5b81019080803573ffffffffffffffffffffffffffffffffffffffff169060200190929190803573ffffffffffffffffffffffffffffffffffffffff1690602001909291908035906020019092919050505061031a565b005b61010061048e565b604051808273ffffffffffffffffffffffffffffffffffffffff1673ffffffffffffffffffffffffffffffffffffffff16815260200191505060405180910390f35b6000809054906101000a900473ffffffffffffffffffffffffffffffffffffffff1673ffffffffffffffffffffffffffffffffffffffff166101826104b7565b73ffffffffffffffffffffffffffffffffffffffff16146101ee576040517f08c379a000000000000000000000000000000000000000000000000000000000815260040180806020018281038252602c8152602001806104ea602c913960400191505060405180910390fd5b600073ffffffffffffffffffffffffffffffffffffffff168173ffffffffffffffffffffffffffffffffffffffff161415610274576040517f08c379a000000000000000000000000000000000000000000000000000000000815260040180806020018281038252602a8152602001806104c0602a913960400191505060405180910390fd5b806000806101000a81548173ffffffffffffffffffffffffffffffffffffffff021916908373ffffffffffffffffffffffffffffffffffffffff1602179055507f4101e71e974f68df5e9730cc223280b41654676bbb052cdcc735c3337e64d2d981604051808273ffffffffffffffffffffffffffffffffffffffff1673ffffffffffffffffffffffffffffffffffffffff16815260200191505060405180910390a150565b6000809054906101000a900473ffffffffffffffffffffffffffffffffffffffff1673ffffffffffffffffffffffffffffffffffffffff1661035a6104b7565b73ffffffffffffffffffffffffffffffffffffffff16146103c6576040517f08c379a000000000000000000000000000000000000000000000000000000000815260040180806020018281038252602c8152602001806104ea602c913960400191505060405180910390fd5b8273ffffffffffffffffffffffffffffffffffffffff1663a9059cbb83836040518363ffffffff1660e01b8152600401808373ffffffffffffffffffffffffffffffffffffffff1673ffffffffffffffffffffffffffffffffffffffff16815260200182815260200192505050602060405180830381600087803b15801561044d57600080fd5b505af1158015610461573d6000803e3d6000fd5b505050506040513d602081101561047757600080fd5b810190808051906020019092919050505050505050565b60008060009054906101000a900473ffffffffffffffffffffffffffffffffffffffff16905090565b60003390509056fe5365636f6e646172793a206e6577207072696d61727920697320746865207a65726f20616464726573735365636f6e646172793a2063616c6c6572206973206e6f7420746865207072696d617279206163636f756e74a265627a7a7231582007b27290a3e75bfe4b2c44d031719dba9b236ce4a315bedfd7b00a221f6fe12b64736f6c6343000511003254696d656443726f776473616c653a206f70656e696e672074696d65206973206265666f72652063757272656e742074696d6554696d656443726f776473616c653a206f70656e696e672074696d65206973206e6f74206265666f726520636c6f73696e672074696d6543726f776473616c653a20746f6b656e20697320746865207a65726f206164647265737343726f776473616c653a2077616c6c657420697320746865207a65726f2061646472657373",
  "source": "pragma solidity ^0.5.0;\n\nimport \"@openzeppelin/contracts/token/ERC20/ERC20.sol\";\nimport \"./MyToken.sol\";\nimport \"@openzeppelin/contracts/crowdsale/Crowdsale.sol\";\nimport \"@openzeppelin/contracts/crowdsale/emission/MintedCrowdsale.sol\";\nimport \"@openzeppelin/contracts/crowdsale/validation/TimedCrowdsale.sol\";\nimport \"@openzeppelin/contracts/crowdsale/distribution/PostDeliveryCrowdsale.sol\";\nimport \"@openzeppelin/contracts/token/ERC20/TokenTimelock.sol\";\nimport \"@openzeppelin/contracts/token/ERC20/ERC20Mintable.sol\";\nimport \"@openzeppelin/contracts/token/ERC20/ERC20Pausable.sol\";\n\n\ncontract MyCrowdsale is Crowdsale, TimedCrowdsale, PostDeliveryCrowdsale {\n  \n  mapping(address => uint256) public contributions;\n\n  // Token Distribution\n  uint256 public tokenSalePercentage = 70;\n  uint256 public foundersPercentage = 10;\n  uint256 public foundationPercentage = 10;\n  uint256 public partnersPercentage = 10;\n\n  // Token reserve funds\n  address public foundersFund;\n  address public foundationFund;\n  address public partnersFund;\n\n  // Token time lock\n  address public foundersTimelock;\n  address public foundationTimelock;\n  address public partnersTimelock;\n\n  uint public releaseTimeFounders;\n  bool public finalized;\n\n  constructor(\n      uint256 rate,    // rate in TKNbits\n      address payable wallet,\n      MyToken token,\n      uint256 openingTime,     // opening time in unix epoch seconds https://www.epochconverter.com/\n      uint256 closingTime,\n      address _foundersFund,\n      address _foundationFund,\n      address _partnersFund,\n      uint256 _releaseTimeFounders\n  )\n      Crowdsale(rate, wallet, token)\n      TimedCrowdsale(openingTime, closingTime)\n      PostDeliveryCrowdsale()\n      public\n  {\n    foundersFund   = _foundersFund;\n    foundationFund = _foundationFund;\n    partnersFund   = _partnersFund;\n    releaseTimeFounders = _releaseTimeFounders;\n  }\n  /**\n  * @dev Returns the amount contributed so far by a sepecific user.\n  * @param _beneficiary Address of contributor\n  * @return User contribution so far\n  */\n  function getUserContribution(address _beneficiary)\n    public view returns (uint256)\n  {\n    return contributions[_beneficiary];\n  }\n\n  function _preValidatePurchase(\n    address _beneficiary,\n    uint256 _weiAmount\n  )\n    internal view\n  {\n    super._preValidatePurchase(_beneficiary, _weiAmount);\n  }\n\n  function validPurchase (address beneficiary,uint256 weiAmount) public \n  {\n      _preValidatePurchase(beneficiary, weiAmount);\n      uint256 _existingContribution = contributions[beneficiary];\n      uint256 _newContribution = _existingContribution.add(weiAmount);\n      contributions[beneficiary] = _newContribution;\n  }\n\n  // function finalizeIfNeeded () internal {\n  //   if (!finalized && block.timestamp >= closingTime) {\n  //       finalization ();\n  //       finalized = true;\n  //   }\n  // }\n\n  /**\n   * @dev enables token transfers, called when owner calls finalize()\n  */\n  // function finalization() internal {\n  //     ERC20Mintable _mintableToken = ERC20Mintable(token);\n  //     uint256 _alreadyMinted = _mintableToken.totalSupply();\n\n  //     uint256 _finalTotalSupply = _alreadyMinted.div(tokenSalePercentage).mul(100);\n\n  //     foundersTimelock   = new TokenTimelock(token, foundersFund, releaseTimeFounders);\n  //     // foundationTimelock = new TokenTimelock(token, foundationFund, releaseTime);\n  //     // partnersTimelock   = new TokenTimelock(token, partnersFund, releaseTime);\n\n  //     _mintableToken.mint(address(foundersTimelock),   _finalTotalSupply.mul(foundersPercentage).div(100));\n  //     _mintableToken.mint(address(foundationTimelock), _finalTotalSupply.mul(foundationPercentage).div(100));\n  //     _mintableToken.mint(address(partnersTimelock),   _finalTotalSupply.mul(partnersPercentage).div(100));\n\n  // }\n\n\n}",
  "sourcePath": "/home/traumaxp/TGRB-Folder/TGR-TEST-TRUFFLE/crowdsale_test/contracts/MyCrowdsale.sol",
  "compiler": {
    "name": "solc",
    "version": "0.5.17+commit.d19bba13.Emscripten.clang"
  },
  "schemaVersion": "3.2.2-next.0",
  "updatedAt": "2021-04-23T11:25:03.011Z",
  "devdoc": {
    "methods": {
      "balanceOf(address)": {
        "return": "the balance of an account."
      },
      "buyTokens(address)": {
        "details": "low level token purchase ***DO NOT OVERRIDE*** This function has a non-reentrancy guard, so it shouldn't be called by another `nonReentrant` function.",
        "params": {
          "beneficiary": "Recipient of the token purchase"
        }
      },
      "closingTime()": {
        "return": "the crowdsale closing time."
      },
      "getUserContribution(address)": {
        "details": "Returns the amount contributed so far by a sepecific user.",
        "params": {
          "_beneficiary": "Address of contributor"
        },
        "return": "User contribution so far"
      },
      "hasClosed()": {
        "details": "Checks whether the period in which the crowdsale is open has already elapsed.",
        "return": "Whether crowdsale period has elapsed"
      },
      "isOpen()": {
        "return": "true if the crowdsale is open, false otherwise."
      },
      "openingTime()": {
        "return": "the crowdsale opening time."
      },
      "rate()": {
        "return": "the number of token units a buyer gets per wei."
      },
      "token()": {
        "return": "the token being sold."
      },
      "wallet()": {
        "return": "the address where funds are collected."
      },
      "weiRaised()": {
        "return": "the amount of wei raised."
      },
      "withdrawTokens(address)": {
        "details": "Withdraw tokens only after crowdsale ends.",
        "params": {
          "beneficiary": "Whose tokens will be withdrawn."
        }
      }
    }
  },
  "userdoc": {
    "methods": {}
  }
}